:0400000002001132B7
:03000B0002006D83
:03006A0002000E83
:03000E000200CE1F
:20006D00C0E0C082C083C007C006C005C004C0D075D000758CF8758A07900001E02401F0DE
:20008D00A3E03400F0900003E0FEA3E0FF900001E0FCA3E0FDECC39EFEED9FFFC3EE94F4BD
:2000AD00EF9401400B639010900003ECF0EDA3F0D0D0D004D005D006D007D083D082D0E027
:2000CD003275A57075D57075E34075A900E5A930E7FB758E00758901758CFF758AFFD28CE9
:0600ED00D2A9D2AF80FE93
:0400F7000000000005
:06004000E478FFF6D8FD94
:20001E007904E94400601B7A019000F7780175A000E493F2A308B8000205A0D9F4DAF2758C
:02003E00A0FF21
:200046007800E84400600A790175A000E4F309D8FC7800E84400600C7900900001E4F0A3B8
:04006600D8FCD9FAEF
:0D0011007581071200F3E582600302000E06
:0400F30075820022F0
:00000001FF
